:020000040000FA
:04000000B421952969
:08000800A600030E8312A700FD
:10001000851C05196C282D1837280830A9000310F5
:10002000AA01051D11280519132885180314AA0C07
:10003000A90B1128051D1A2805191C28051D1E28A5
:10004000051920282A08FA3A031D2828AD146C281F
:100050002E0A5F39AB002F3C03196C280408A80056
:100060002A0880002B08AE00280884006C28AD10F8
:100070002D100830A900AB01AC0C031841288510E5
:1000800043288514AB0A051D43280519452800009F
:10009000000000000000A90B3C282B1885102B1C29
:1000A0008514051D512805195328000000008316EA
:1000B00085148312051D5A288E01FB308F000C1009
:1000C0000C186C28851860280C186C2805196428F1
:1000D0000C186C28051D68288B100B16270E830042
:1000E000A60E260E09002F0884002E0603197E286E
:1000F0000008A2002F0A5F39AF000311080003189F
:100100000516031C05120C3085120C30C220851612
:100110000800851A051E892885160516831685127E
:100120000512831203107F2003147F200830A100E2
:10013000A00C7F20A10B982805168316051685169E
:10014000831208000B12AC000330C220051DA62844
:1001500005101930C2200B118316851083128510EB
:100160000730C220AD102D140B1605148E01FB3084
:100170008F000C100C18BE28AD1CBA2883168514ED
:1001800083120800FF3C81000B110B1DC5280800DD
:10019000A400A41B08003A302406031DD228043012
:1001A000A306E12846302406031DD9280130A30602
:1001B000E12845302406031DE0280230A306E1288B
:1001C0000800ED30A22023080739A2200800851A74
:1001D000F8288E01FB308F000C10851EED280C1CBA
:1001E000F828AA30A0008920FF30A220A301E12036
:0201F000080005
:10020000A40001308A0024088207003443340034FB
:100210003F343D343B343C3458340034443442346D
:1002200040343E340F3429340034003438342A3416
:1002300000341D34103402340034003400342C34C3
:100240001F341E3411340334003400342E342D3462
:1002500020341234053404340034003439342F345B
:10026000213414341334063400340034313430343F
:10027000233422341534073400340034003432344B
:10028000243416340834093400340034333425342B
:10029000173418340B340A34003400343434353411
:1002A0002634273419340C34003400340034283414
:1002B00000341A340D34003400343A3436341C34EB
:1002C0001B3400342B3400340034003456340034F2
:1002D0000034003400340E34003400344F34003421
:1002E0004B344734003400340034523453345034E7
:1002F0004C344D3448340134453457344E34513441
:100300004A3437344934463400340034003400343D
:1003100041340034003400340034003400340034FC
:1003200000340034003400340034E7207320031913
:1003300095292208703E031CA8292208A000E03A53
:100340008519A4290319B129103A0319A31796296D
:100350002208002100380319B229A31B8038A0000D
:10036000C8208920A31395298316113081003E30BF
:10037000950036308500FF239000831207309900E6
:100380004030AE00AF00A301AD01AC0131308500BB
:0C0390002130900090308B001014080009
:02400E00D43F9D
:104200005B0041005400580054004B004500590029
:1042100020005600650072002E00200030002E00A5
:06422000390034005D00CE
:00000001FF
